{
    "contractName": "Route",
    "abi": [
        {
            "inputs": [
                {
                    "internalType": "address",
                    "name": "_sender",
                    "type": "address"
                },
                {
                    "internalType": "address",
                    "name": "_receiver",
                    "type": "address"
                },
                {
                    "internalType": "string",
                    "name": "_destinyLatitude",
                    "type": "string"
                },
                {
                    "internalType": "string",
                    "name": "_destinyLongitude",
                    "type": "string"
                },
                {
                    "internalType": "int256",
                    "name": "_limitTemperature",
                    "type": "int256"
                },
                {
                    "internalType": "int256",
                    "name": "_higherTemperature",
                    "type": "int256"
                },
                {
                    "internalType": "address",
                    "name": "_currentManager",
                    "type": "address"
                }
            ],
            "stateMutability": "nonpayable",
            "type": "constructor"
        },
        {
            "anonymous": false,
            "inputs": [
                {
                    "indexed": false,
                    "internalType": "uint256",
                    "name": "sensorId",
                    "type": "uint256"
                },
                {
                    "indexed": false,
                    "internalType": "uint256",
                    "name": "timestamp",
                    "type": "uint256"
                },
                {
                    "indexed": false,
                    "internalType": "address",
                    "name": "previousManager",
                    "type": "address"
                },
                {
                    "indexed": false,
                    "internalType": "address",
                    "name": "newManager",
                    "type": "address"
                }
            ],
            "name": "ManagerChanged",
            "type": "event"
        },
        {
            "anonymous": false,
            "inputs": [
                {
                    "indexed": false,
                    "internalType": "uint256",
                    "name": "sensorId",
                    "type": "uint256"
                }
            ],
            "name": "NewSensor",
            "type": "event"
        },
        {
            "anonymous": false,
            "inputs": [
                {
                    "indexed": true,
                    "internalType": "address",
                    "name": "previousOwner",
                    "type": "address"
                },
                {
                    "indexed": true,
                    "internalType": "address",
                    "name": "newOwner",
                    "type": "address"
                }
            ],
            "name": "OwnershipTransferred",
            "type": "event"
        },
        {
            "anonymous": false,
            "inputs": [
                {
                    "indexed": false,
                    "internalType": "uint256",
                    "name": "sensorId",
                    "type": "uint256"
                },
                {
                    "indexed": false,
                    "internalType": "uint256",
                    "name": "timestamp",
                    "type": "uint256"
                },
                {
                    "indexed": false,
                    "internalType": "address",
                    "name": "currentManager",
                    "type": "address"
                }
            ],
            "name": "TemperatureExceeded",
            "type": "event"
        },
        {
            "inputs": [
                {
                    "internalType": "address",
                    "name": "_newManager",
                    "type": "address"
                },
                {
                    "internalType": "uint256",
                    "name": "sensorId",
                    "type": "uint256"
                }
            ],
            "name": "changeCurrentManager",
            "outputs": [],
            "stateMutability": "nonpayable",
            "type": "function"
        },
        {
            "inputs": [
                {
                    "internalType": "int256",
                    "name": "_temperature",
                    "type": "int256"
                },
                {
                    "internalType": "uint256",
                    "name": "sensorId",
                    "type": "uint256"
                }
            ],
            "name": "checkTemperature",
            "outputs": [],
            "stateMutability": "nonpayable",
            "type": "function"
        },
        {
            "inputs": [],
            "name": "owner",
            "outputs": [
                {
                    "internalType": "address",
                    "name": "",
                    "type": "address"
                }
            ],
            "stateMutability": "view",
            "type": "function"
        },
        {
            "inputs": [],
            "name": "renounceOwnership",
            "outputs": [],
            "stateMutability": "nonpayable",
            "type": "function"
        },
        {
            "inputs": [
                {
                    "internalType": "uint256",
                    "name": "",
                    "type": "uint256"
                }
            ],
            "name": "sensorToOwner",
            "outputs": [
                {
                    "internalType": "address",
                    "name": "",
                    "type": "address"
                }
            ],
            "stateMutability": "view",
            "type": "function"
        },
        {
            "inputs": [
                {
                    "internalType": "uint256",
                    "name": "",
                    "type": "uint256"
                }
            ],
            "name": "sensors",
            "outputs": [
                {
                    "internalType": "int256",
                    "name": "limitTemperature",
                    "type": "int256"
                },
                {
                    "internalType": "int256",
                    "name": "higherTemperature",
                    "type": "int256"
                },
                {
                    "internalType": "address",
                    "name": "sensorAddress",
                    "type": "address"
                },
                {
                    "internalType": "address",
                    "name": "currentManager",
                    "type": "address"
                }
            ],
            "stateMutability": "view",
            "type": "function"
        },
        {
            "inputs": [
                {
                    "internalType": "address",
                    "name": "newOwner",
                    "type": "address"
                }
            ],
            "name": "transferOwnership",
            "outputs": [],
            "stateMutability": "nonpayable",
            "type": "function"
        }
    ],
    "bytecode": "60806040523480156200001157600080fd5b5060405162000b0838038062000b08833981016040819052620000349162000372565b6200003f33620000e6565b60408051808201909152858152602081018590528790879060006200006687878762000136565b905060006001828154811062000080576200008062000428565b60009182526020918290206040805160808101825260049093029091018054835260018101549383019390935260028301546001600160a01b039081169183019190915260039092015490911660609091015250620004649a5050505050505050505050565b600080546001600160a01b038381166001600160a01b0319831681178455604051919092169283917f8be0079c531659141344cd1fd0a4f28419497f9722a3daafe3b4186f6b6457e09190a35050565b6040805160808101825284815260208101848152339282019283526001600160a01b03848116606084019081526001805480820182556000828152955160049091027fb10e2d527612073b26eecdfd717e6a320cf44b4afac2b0732d9fcbe2b7fa0cf681019190915593517fb10e2d527612073b26eecdfd717e6a320cf44b4afac2b0732d9fcbe2b7fa0cf785015594517fb10e2d527612073b26eecdfd717e6a320cf44b4afac2b0732d9fcbe2b7fa0cf8840180549184166001600160a01b031992831617905590517fb10e2d527612073b26eecdfd717e6a320cf44b4afac2b0732d9fcbe2b7fa0cf990930180549390921692169190911790558154909182916200024491906200043e565b90507f674473e560657187550614a449bdea9c80b254146584232a694c6850baf95b05816040516200027891815260200190565b60405180910390a1949350505050565b80516001600160a01b0381168114620002a057600080fd5b919050565b634e487b7160e01b600052604160045260246000fd5b600082601f830112620002cd57600080fd5b81516001600160401b0380821115620002ea57620002ea620002a5565b604051601f8301601f19908116603f01168101908282118183101715620003155762000315620002a5565b816040528381526020925086838588010111156200033257600080fd5b600091505b8382101562000356578582018301518183018401529082019062000337565b83821115620003685760008385830101525b9695505050505050565b600080600080600080600060e0888a0312156200038e57600080fd5b620003998862000288565b9650620003a96020890162000288565b60408901519096506001600160401b0380821115620003c757600080fd5b620003d58b838c01620002bb565b965060608a0151915080821115620003ec57600080fd5b50620003fb8a828b01620002bb565b9450506080880151925060a088015191506200041a60c0890162000288565b905092959891949750929550565b634e487b7160e01b600052603260045260246000fd5b6000828210156200045f57634e487b7160e01b600052601160045260246000fd5b500390565b61069480620004746000396000f3fe608060405234801561001057600080fd5b506004361061007d5760003560e01c8063715018a61161005b578063715018a6146100f15780638da5cb5b146100f9578063db21ee061461011e578063f2fde38b1461014757600080fd5b8063046f6f3914610082578063412f2e8214610097578063552c7441146100de575b600080fd5b61009561009036600461058c565b61015a565b005b6100aa6100a53660046105b6565b610276565b6040805194855260208501939093526001600160a01b03918216928401929092521660608201526080015b60405180910390f35b6100956100ec3660046105cf565b6102bc565b61009561044f565b6000546001600160a01b03165b6040516001600160a01b0390911681526020016100d5565b61010661012c3660046105b6565b6002602052600090815260409020546001600160a01b031681565b6100956101553660046105f1565b610485565b60006001828154811061016f5761016f610613565b60009182526020909120600360049092020101546001600160a01b031690503381146101e25760405162461bcd60e51b815260206004820152601e60248201527f596f75277265206e6f74207468652063757272656e74206d616e61676572000060448201526064015b60405180910390fd5b82600183815481106101f6576101f6610613565b60009182526020918290206004919091020160030180546001600160a01b0319166001600160a01b039384161790556040805185815242928101929092528383169082015290841660608201527f76284f76814c94b071a4cdf626674ba74f354219ffa8b50d5f25bf8226e562b5906080015b60405180910390a1505050565b6001818154811061028657600080fd5b60009182526020909120600490910201805460018201546002830154600390930154919350916001600160a01b03908116911684565b6000546001600160a01b031633146102e65760405162461bcd60e51b81526004016101d990610629565b6000600182815481106102fb576102fb610613565b60009182526020918290206040805160808101825260049093029091018054835260018101549383019390935260028301546001600160a01b039081169183018290526003909301549092166060820152915033146103aa5760405162461bcd60e51b815260206004820152602560248201527f5468652073656e6465722069736e27742074686520636f6e747261637427732060448201526437bbb732b960d91b60648201526084016101d9565b80518313156103f15760405162461bcd60e51b815260206004820152601360248201527254656d70657261747572652069732066696e6560681b60448201526064016101d9565b806020015183131561040557602081018390525b606080820151604080518581524260208201526001600160a01b03909216908201527f210902bf37f29a55ce6a99d44d676fccb6f05d83dd7aaf5a957e0d7b5710a5289101610269565b6000546001600160a01b031633146104795760405162461bcd60e51b81526004016101d990610629565b6104836000610520565b565b6000546001600160a01b031633146104af5760405162461bcd60e51b81526004016101d990610629565b6001600160a01b0381166105145760405162461bcd60e51b815260206004820152602660248201527f4f776e61626c653a206e6577206f776e657220697320746865207a65726f206160448201526564647265737360d01b60648201526084016101d9565b61051d81610520565b50565b600080546001600160a01b038381166001600160a01b0319831681178455604051919092169283917f8be0079c531659141344cd1fd0a4f28419497f9722a3daafe3b4186f6b6457e09190a35050565b80356001600160a01b038116811461058757600080fd5b919050565b6000806040838503121561059f57600080fd5b6105a883610570565b946020939093013593505050565b6000602082840312156105c857600080fd5b5035919050565b600080604083850312156105e257600080fd5b50508035926020909101359150565b60006020828403121561060357600080fd5b61060c82610570565b9392505050565b634e487b7160e01b600052603260045260246000fd5b6020808252818101527f4f776e61626c653a2063616c6c6572206973206e6f7420746865206f776e657260408201526060019056fea26469706673582212208f54c71c58313179a392f243816de8c1a2c919341a9c8226f8c10458ca9fadbe64736f6c634300080d0033",
    "sourcePath": "/home/pj/Desktop/proyecto/cadena_frio/contracts/Route.sol",
    "compiler": {
        "name": "solc",
        "version": "0.8.13+commit.abaa5c0e"
    },
    "functionHashes": {
        "changeCurrentManager(address,uint256)": "046f6f39",
        "checkTemperature(int256,uint256)": "552c7441",
        "owner()": "8da5cb5b",
        "renounceOwnership()": "715018a6",
        "sensorToOwner(uint256)": "db21ee06",
        "sensors(uint256)": "412f2e82",
        "transferOwnership(address)": "f2fde38b"
    },
    "gasEstimates": {
        "creation": {
            "codeDepositCost": "336800",
            "executionCost": "infinite",
            "totalCost": "infinite"
        },
        "external": {
            "changeCurrentManager(address,uint256)": "33062",
            "checkTemperature(int256,uint256)": "14967",
            "owner()": "2342",
            "renounceOwnership()": "28114",
            "sensorToOwner(uint256)": "2521",
            "sensors(uint256)": "11063",
            "transferOwnership(address)": "28375"
        }
    }
}