{
    "contractName": "SensorFactory",
    "abi": [
        {
            "anonymous": false,
            "inputs": [
                {
                    "indexed": false,
                    "internalType": "uint256",
                    "name": "sensorId",
                    "type": "uint256"
                }
            ],
            "name": "NewSensor",
            "type": "event"
        },
        {
            "anonymous": false,
            "inputs": [
                {
                    "indexed": true,
                    "internalType": "address",
                    "name": "previousOwner",
                    "type": "address"
                },
                {
                    "indexed": true,
                    "internalType": "address",
                    "name": "newOwner",
                    "type": "address"
                }
            ],
            "name": "OwnershipTransferred",
            "type": "event"
        },
        {
            "inputs": [],
            "name": "owner",
            "outputs": [
                {
                    "internalType": "address",
                    "name": "",
                    "type": "address"
                }
            ],
            "stateMutability": "view",
            "type": "function"
        },
        {
            "inputs": [],
            "name": "renounceOwnership",
            "outputs": [],
            "stateMutability": "nonpayable",
            "type": "function"
        },
        {
            "inputs": [
                {
                    "internalType": "uint256",
                    "name": "",
                    "type": "uint256"
                }
            ],
            "name": "sensorToOwner",
            "outputs": [
                {
                    "internalType": "address",
                    "name": "",
                    "type": "address"
                }
            ],
            "stateMutability": "view",
            "type": "function"
        },
        {
            "inputs": [
                {
                    "internalType": "uint256",
                    "name": "",
                    "type": "uint256"
                }
            ],
            "name": "sensors",
            "outputs": [
                {
                    "internalType": "int256",
                    "name": "limitTemperature",
                    "type": "int256"
                },
                {
                    "internalType": "int256",
                    "name": "higherTemperature",
                    "type": "int256"
                },
                {
                    "internalType": "address",
                    "name": "sensorAddress",
                    "type": "address"
                },
                {
                    "internalType": "address",
                    "name": "currentManager",
                    "type": "address"
                }
            ],
            "stateMutability": "view",
            "type": "function"
        },
        {
            "inputs": [
                {
                    "internalType": "address",
                    "name": "newOwner",
                    "type": "address"
                }
            ],
            "name": "transferOwnership",
            "outputs": [],
            "stateMutability": "nonpayable",
            "type": "function"
        }
    ],
    "bytecode": "608060405234801561001057600080fd5b5061001a3361001f565b61006f565b600080546001600160a01b038381166001600160a01b0319831681178455604051919092169283917f8be0079c531659141344cd1fd0a4f28419497f9722a3daafe3b4186f6b6457e09190a35050565b6103598061007e6000396000f3fe608060405234801561001057600080fd5b50600436106100575760003560e01c8063412f2e821461005c578063715018a6146100a35780638da5cb5b146100ad578063db21ee06146100d2578063f2fde38b146100fb575b600080fd5b61006f61006a3660046102da565b61010e565b6040805194855260208501939093526001600160a01b03918216928401929092521660608201526080015b60405180910390f35b6100ab610154565b005b6000546001600160a01b03165b6040516001600160a01b03909116815260200161009a565b6100ba6100e03660046102da565b6002602052600090815260409020546001600160a01b031681565b6100ab6101093660046102f3565b6101bf565b6001818154811061011e57600080fd5b60009182526020909120600490910201805460018201546002830154600390930154919350916001600160a01b03908116911684565b6000546001600160a01b031633146101b35760405162461bcd60e51b815260206004820181905260248201527f4f776e61626c653a2063616c6c6572206973206e6f7420746865206f776e657260448201526064015b60405180910390fd5b6101bd600061028a565b565b6000546001600160a01b031633146102195760405162461bcd60e51b815260206004820181905260248201527f4f776e61626c653a2063616c6c6572206973206e6f7420746865206f776e657260448201526064016101aa565b6001600160a01b03811661027e5760405162461bcd60e51b815260206004820152602660248201527f4f776e61626c653a206e6577206f776e657220697320746865207a65726f206160448201526564647265737360d01b60648201526084016101aa565b6102878161028a565b50565b600080546001600160a01b038381166001600160a01b0319831681178455604051919092169283917f8be0079c531659141344cd1fd0a4f28419497f9722a3daafe3b4186f6b6457e09190a35050565b6000602082840312156102ec57600080fd5b5035919050565b60006020828403121561030557600080fd5b81356001600160a01b038116811461031c57600080fd5b939250505056fea26469706673582212206aeb6574960d393b36500c8d44eea995b35bfa4c09327a9c43ecf4c4c9e00da764736f6c634300080d0033",
    "sourcePath": "/home/pj/Desktop/proyecto/cadena_frio/contracts/SensorFactory.sol",
    "compiler": {
        "name": "solc",
        "version": "0.8.13+commit.abaa5c0e"
    },
    "functionHashes": {
        "owner()": "8da5cb5b",
        "renounceOwnership()": "715018a6",
        "sensorToOwner(uint256)": "db21ee06",
        "sensors(uint256)": "412f2e82",
        "transferOwnership(address)": "f2fde38b"
    },
    "gasEstimates": {
        "creation": {
            "codeDepositCost": "171400",
            "executionCost": "26055",
            "totalCost": "197455"
        },
        "external": {
            "owner()": "2342",
            "renounceOwnership()": "28114",
            "sensorToOwner(uint256)": "2521",
            "sensors(uint256)": "11018",
            "transferOwnership(address)": "28340"
        },
        "internal": {
            "_createSensor(int256,int256,address)": "infinite"
        }
    }
}