{
  "contractName": "Route",
  "abi": [
    {
      "inputs": [
        {
          "internalType": "address",
          "name": "_sender",
          "type": "address"
        },
        {
          "internalType": "address",
          "name": "_receiver",
          "type": "address"
        },
        {
          "internalType": "string",
          "name": "_destinyLatitude",
          "type": "string"
        },
        {
          "internalType": "string",
          "name": "_destinyLongitude",
          "type": "string"
        },
        {
          "internalType": "int256",
          "name": "_limitTemperature",
          "type": "int256"
        },
        {
          "internalType": "int256",
          "name": "_higherTemperature",
          "type": "int256"
        },
        {
          "internalType": "address",
          "name": "_currentManager",
          "type": "address"
        }
      ],
      "stateMutability": "nonpayable",
      "type": "constructor"
    },
    {
      "anonymous": false,
      "inputs": [
        {
          "indexed": false,
          "internalType": "uint256",
          "name": "sensorId",
          "type": "uint256"
        },
        {
          "indexed": false,
          "internalType": "uint256",
          "name": "timestamp",
          "type": "uint256"
        },
        {
          "indexed": false,
          "internalType": "address",
          "name": "previousManager",
          "type": "address"
        },
        {
          "indexed": false,
          "internalType": "address",
          "name": "newManager",
          "type": "address"
        }
      ],
      "name": "ManagerChanged",
      "type": "event"
    },
    {
      "anonymous": false,
      "inputs": [
        {
          "indexed": false,
          "internalType": "uint256",
          "name": "sensorId",
          "type": "uint256"
        }
      ],
      "name": "NewSensor",
      "type": "event"
    },
    {
      "anonymous": false,
      "inputs": [
        {
          "indexed": true,
          "internalType": "address",
          "name": "previousOwner",
          "type": "address"
        },
        {
          "indexed": true,
          "internalType": "address",
          "name": "newOwner",
          "type": "address"
        }
      ],
      "name": "OwnershipTransferred",
      "type": "event"
    },
    {
      "anonymous": false,
      "inputs": [
        {
          "indexed": false,
          "internalType": "uint256",
          "name": "sensorId",
          "type": "uint256"
        },
        {
          "indexed": false,
          "internalType": "uint256",
          "name": "timestamp",
          "type": "uint256"
        },
        {
          "indexed": false,
          "internalType": "address",
          "name": "currentManager",
          "type": "address"
        }
      ],
      "name": "TemperatureExceeded",
      "type": "event"
    },
    {
      "inputs": [],
      "name": "owner",
      "outputs": [
        {
          "internalType": "address",
          "name": "",
          "type": "address"
        }
      ],
      "stateMutability": "view",
      "type": "function",
      "constant": true
    },
    {
      "inputs": [],
      "name": "renounceOwnership",
      "outputs": [],
      "stateMutability": "nonpayable",
      "type": "function"
    },
    {
      "inputs": [
        {
          "internalType": "uint256",
          "name": "",
          "type": "uint256"
        }
      ],
      "name": "sensorToOwner",
      "outputs": [
        {
          "internalType": "address",
          "name": "",
          "type": "address"
        }
      ],
      "stateMutability": "view",
      "type": "function",
      "constant": true
    },
    {
      "inputs": [
        {
          "internalType": "uint256",
          "name": "",
          "type": "uint256"
        }
      ],
      "name": "sensors",
      "outputs": [
        {
          "internalType": "int256",
          "name": "limitTemperature",
          "type": "int256"
        },
        {
          "internalType": "int256",
          "name": "higherTemperature",
          "type": "int256"
        },
        {
          "internalType": "address",
          "name": "sensorAddress",
          "type": "address"
        },
        {
          "internalType": "address",
          "name": "currentManager",
          "type": "address"
        }
      ],
      "stateMutability": "view",
      "type": "function",
      "constant": true
    },
    {
      "inputs": [
        {
          "internalType": "address",
          "name": "newOwner",
          "type": "address"
        }
      ],
      "name": "transferOwnership",
      "outputs": [],
      "stateMutability": "nonpayable",
      "type": "function"
    },
    {
      "inputs": [
        {
          "internalType": "int256",
          "name": "_temperature",
          "type": "int256"
        },
        {
          "internalType": "uint256",
          "name": "sensorId",
          "type": "uint256"
        }
      ],
      "name": "checkTemperature",
      "outputs": [],
      "stateMutability": "nonpayable",
      "type": "function"
    },
    {
      "inputs": [
        {
          "internalType": "address",
          "name": "_newManager",
          "type": "address"
        },
        {
          "internalType": "uint256",
          "name": "sensorId",
          "type": "uint256"
        }
      ],
      "name": "changeCurrentManager",
      "outputs": [],
      "stateMutability": "nonpayable",
      "type": "function"
    }
  ],
  "bytecode": "0x60806040523480156200001157600080fd5b5060405162001559380380620015598339818101604052810190620000379190620004a0565b620000576200004b620001bb60201b60201c565b620001c360201b60201c565b600087905060008790506000604051806040016040528089815260200188815250905060006200008f8787876200028760201b60201c565b9050600060018281548110620000ce577f4e487b7100000000000000000000000000000000000000000000000000000000600052603260045260246000fd5b906000526020600020906004020160405180608001604052908160008201548152602001600182015481526020016002820160009054906101000a900473ffffffffffffffffffffffffffffffffffffffff1673ffffffffffffffffffffffffffffffffffffffff1673ffffffffffffffffffffffffffffffffffffffff1681526020016003820160009054906101000a900473ffffffffffffffffffffffffffffffffffffffff1673ffffffffffffffffffffffffffffffffffffffff1673ffffffffffffffffffffffffffffffffffffffff168152505090505050505050505050505050506200075f565b600033905090565b60008060009054906101000a900473ffffffffffffffffffffffffffffffffffffffff169050816000806101000a81548173ffffffffffffffffffffffffffffffffffffffff021916908373ffffffffffffffffffffffffffffffffffffffff1602179055508173ffffffffffffffffffffffffffffffffffffffff168173ffffffffffffffffffffffffffffffffffffffff167f8be0079c531659141344cd1fd0a4f28419497f9722a3daafe3b4186f6b6457e060405160405180910390a35050565b6000600160405180608001604052808681526020018581526020013373ffffffffffffffffffffffffffffffffffffffff1681526020018473ffffffffffffffffffffffffffffffffffffffff168152509080600181540180825580915050600190039060005260206000209060040201600090919091909150600082015181600001556020820151816001015560408201518160020160006101000a81548173ffffffffffffffffffffffffffffffffffffffff021916908373ffffffffffffffffffffffffffffffffffffffff16021790555060608201518160030160006101000a81548173ffffffffffffffffffffffffffffffffffffffff021916908373ffffffffffffffffffffffffffffffffffffffff1602179055505050600060018080549050620003ba919062000614565b90507f674473e560657187550614a449bdea9c80b254146584232a694c6850baf95b0581604051620003ed919062000590565b60405180910390a1809150509392505050565b6000620004176200041184620005e1565b620005ad565b9050828152602081018484840111156200043057600080fd5b6200043d84828562000697565b509392505050565b60008151905062000456816200072b565b92915050565b6000815190506200046d8162000745565b92915050565b600082601f8301126200048557600080fd5b81516200049784826020860162000400565b91505092915050565b600080600080600080600060e0888a031215620004bc57600080fd5b6000620004cc8a828b0162000445565b9750506020620004df8a828b0162000445565b965050604088015167ffffffffffffffff811115620004fd57600080fd5b6200050b8a828b0162000473565b955050606088015167ffffffffffffffff8111156200052957600080fd5b620005378a828b0162000473565b94505060806200054a8a828b016200045c565b93505060a06200055d8a828b016200045c565b92505060c0620005708a828b0162000445565b91505092959891949750929550565b6200058a816200068d565b82525050565b6000602082019050620005a760008301846200057f565b92915050565b6000604051905081810181811067ffffffffffffffff82111715620005d757620005d6620006fc565b5b8060405250919050565b600067ffffffffffffffff821115620005ff57620005fe620006fc565b5b601f19601f8301169050602081019050919050565b600062000621826200068d565b91506200062e836200068d565b925082821015620006445762000643620006cd565b5b828203905092915050565b60006200065c826200066d565b9050919050565b6000819050919050565b600073ffffffffffffffffffffffffffffffffffffffff82169050919050565b6000819050919050565b60005b83811015620006b75780820151818401526020810190506200069a565b83811115620006c7576000848401525b50505050565b7f4e487b7100000000000000000000000000000000000000000000000000000000600052601160045260246000fd5b7f4e487b7100000000000000000000000000000000000000000000000000000000600052604160045260246000fd5b62000736816200064f565b81146200074257600080fd5b50565b620007508162000663565b81146200075c57600080fd5b50565b610dea806200076f6000396000f3fe608060405234801561001057600080fd5b506004361061007d5760003560e01c8063715018a61161005b578063715018a6146100ed5780638da5cb5b146100f7578063db21ee0614610115578063f2fde38b146101455761007d565b8063046f6f3914610082578063412f2e821461009e578063552c7441146100d1575b600080fd5b61009c60048036038101906100979190610942565b610161565b005b6100b860048036038101906100b391906109ba565b61030b565b6040516100c89493929190610bb7565b60405180910390f35b6100eb60048036038101906100e6919061097e565b61038b565b005b6100f5610632565b005b6100ff6106ba565b60405161010c9190610b9c565b60405180910390f35b61012f600480360381019061012a91906109ba565b6106e3565b60405161013c9190610b9c565b60405180910390f35b61015f600480360381019061015a9190610919565b610716565b005b60006001828154811061019d577f4e487b7100000000000000000000000000000000000000000000000000000000600052603260045260246000fd5b906000526020600020906004020160030160009054906101000a900473ffffffffffffffffffffffffffffffffffffffff1690503373ffffffffffffffffffffffffffffffffffffffff168173ffffffffffffffffffffffffffffffffffffffff161461023f576040517f08c379a000000000000000000000000000000000000000000000000000000000815260040161023690610c1c565b60405180910390fd5b826001838154811061027a577f4e487b7100000000000000000000000000000000000000000000000000000000600052603260045260246000fd5b906000526020600020906004020160030160006101000a81548173ffffffffffffffffffffffffffffffffffffffff021916908373ffffffffffffffffffffffffffffffffffffffff1602179055507f76284f76814c94b071a4cdf626674ba74f354219ffa8b50d5f25bf8226e562b5824283866040516102fe9493929190610cd3565b60405180910390a1505050565b6001818154811061031b57600080fd5b90600052602060002090600402016000915090508060000154908060010154908060020160009054906101000a900473ffffffffffffffffffffffffffffffffffffffff16908060030160009054906101000a900473ffffffffffffffffffffffffffffffffffffffff16905084565b61039361080e565b73ffffffffffffffffffffffffffffffffffffffff166103b16106ba565b73ffffffffffffffffffffffffffffffffffffffff1614610407576040517f08c379a00000000000000000000000000000000000000000000000000000000081526004016103fe90610c7c565b60405180910390fd5b600060018281548110610443577f4e487b7100000000000000000000000000000000000000000000000000000000600052603260045260246000fd5b906000526020600020906004020160405180608001604052908160008201548152602001600182015481526020016002820160009054906101000a900473ffffffffffffffffffffffffffffffffffffffff1673ffffffffffffffffffffffffffffffffffffffff1673ffffffffffffffffffffffffffffffffffffffff1681526020016003820160009054906101000a900473ffffffffffffffffffffffffffffffffffffffff1673ffffffffffffffffffffffffffffffffffffffff1673ffffffffffffffffffffffffffffffffffffffff168152505090503373ffffffffffffffffffffffffffffffffffffffff16816040015173ffffffffffffffffffffffffffffffffffffffff1614610590576040517f08c379a000000000000000000000000000000000000000000000000000000000815260040161058790610c5c565b60405180910390fd5b80600001518313156105d7576040517f08c379a00000000000000000000000000000000000000000000000000000000081526004016105ce90610c3c565b60405180910390fd5b80602001518313156105ee57828160200181815250505b7f210902bf37f29a55ce6a99d44d676fccb6f05d83dd7aaf5a957e0d7b5710a5288242836060015160405161062593929190610c9c565b60405180910390a1505050565b61063a61080e565b73ffffffffffffffffffffffffffffffffffffffff166106586106ba565b73ffffffffffffffffffffffffffffffffffffffff16146106ae576040517f08c379a00000000000000000000000000000000000000000000000000000000081526004016106a590610c7c565b60405180910390fd5b6106b86000610816565b565b60008060009054906101000a900473ffffffffffffffffffffffffffffffffffffffff16905090565b60026020528060005260406000206000915054906101000a900473ffffffffffffffffffffffffffffffffffffffff1681565b61071e61080e565b73ffffffffffffffffffffffffffffffffffffffff1661073c6106ba565b73ffffffffffffffffffffffffffffffffffffffff1614610792576040517f08c379a000000000000000000000000000000000000000000000000000000000815260040161078990610c7c565b60405180910390fd5b600073ffffffffffffffffffffffffffffffffffffffff168173ffffffffffffffffffffffffffffffffffffffff161415610802576040517f08c379a00000000000000000000000000000000000000000000000000000000081526004016107f990610bfc565b60405180910390fd5b61080b81610816565b50565b600033905090565b60008060009054906101000a900473ffffffffffffffffffffffffffffffffffffffff169050816000806101000a81548173ffffffffffffffffffffffffffffffffffffffff021916908373ffffffffffffffffffffffffffffffffffffffff1602179055508173ffffffffffffffffffffffffffffffffffffffff168173ffffffffffffffffffffffffffffffffffffffff167f8be0079c531659141344cd1fd0a4f28419497f9722a3daafe3b4186f6b6457e060405160405180910390a35050565b6000813590506108e981610d6f565b92915050565b6000813590506108fe81610d86565b92915050565b60008135905061091381610d9d565b92915050565b60006020828403121561092b57600080fd5b6000610939848285016108da565b91505092915050565b6000806040838503121561095557600080fd5b6000610963858286016108da565b925050602061097485828601610904565b9150509250929050565b6000806040838503121561099157600080fd5b600061099f858286016108ef565b92505060206109b085828601610904565b9150509250929050565b6000602082840312156109cc57600080fd5b60006109da84828501610904565b91505092915050565b6109ec81610d29565b82525050565b6109fb81610d3b565b82525050565b6000610a0e602683610d18565b91507f4f776e61626c653a206e6577206f776e657220697320746865207a65726f206160008301527f64647265737300000000000000000000000000000000000000000000000000006020830152604082019050919050565b6000610a74601e83610d18565b91507f596f75277265206e6f74207468652063757272656e74206d616e6167657200006000830152602082019050919050565b6000610ab4601383610d18565b91507f54656d70657261747572652069732066696e65000000000000000000000000006000830152602082019050919050565b6000610af4602583610d18565b91507f5468652073656e6465722069736e27742074686520636f6e747261637427732060008301527f6f776e65720000000000000000000000000000000000000000000000000000006020830152604082019050919050565b6000610b5a602083610d18565b91507f4f776e61626c653a2063616c6c6572206973206e6f7420746865206f776e65726000830152602082019050919050565b610b9681610d65565b82525050565b6000602082019050610bb160008301846109e3565b92915050565b6000608082019050610bcc60008301876109f2565b610bd960208301866109f2565b610be660408301856109e3565b610bf360608301846109e3565b95945050505050565b60006020820190508181036000830152610c1581610a01565b9050919050565b60006020820190508181036000830152610c3581610a67565b9050919050565b60006020820190508181036000830152610c5581610aa7565b9050919050565b60006020820190508181036000830152610c7581610ae7565b9050919050565b60006020820190508181036000830152610c9581610b4d565b9050919050565b6000606082019050610cb16000830186610b8d565b610cbe6020830185610b8d565b610ccb60408301846109e3565b949350505050565b6000608082019050610ce86000830187610b8d565b610cf56020830186610b8d565b610d0260408301856109e3565b610d0f60608301846109e3565b95945050505050565b600082825260208201905092915050565b6000610d3482610d45565b9050919050565b6000819050919050565b600073ffffffffffffffffffffffffffffffffffffffff82169050919050565b6000819050919050565b610d7881610d29565b8114610d8357600080fd5b50565b610d8f81610d3b565b8114610d9a57600080fd5b50565b610da681610d65565b8114610db157600080fd5b5056fea26469706673582212208531253989b066c79324f5c80d9257f2832b326dfbb8ab459edc3bdc3c0a9f5064736f6c63430008000033",
  "immutableReferences": {},
  "source": "// SPDX-License-Identifier: GPL-3.0\n\npragma solidity >=0.7.0 <0.9.0;\nimport \"./SensorFactory.sol\";\n\n\ncontract Route is SensorFactory{\n    \n    constructor(address _sender, address _receiver, string memory _destinyLatitude, string memory _destinyLongitude, int _limitTemperature, int _higherTemperature, address _currentManager){\n        address sender = _sender;\n        address receiver = _receiver;\n        destinyCoordinates memory coordinates = destinyCoordinates(_destinyLatitude, _destinyLongitude);\n        uint sensorId = _createSensor(_limitTemperature, _higherTemperature, _currentManager);\n        Sensor memory sensor = sensors[sensorId];\n    }\n\n    struct destinyCoordinates {\n        string latitude;\n        string longitude;\n    }\n\n    event TemperatureExceeded(uint sensorId, uint timestamp, address currentManager);\n    event ManagerChanged(uint sensorId, uint timestamp, address previousManager, address newManager);\n    \n    /**\n     *  This function checks if the given temperature is higher than limitTemperature, if so,\n     *  an alert is emitted\n     */\n    function checkTemperature(int _temperature, uint sensorId) public onlyOwner {\n\n        Sensor memory sensor = sensors[sensorId];\n        require(sensor.sensorAddress == msg.sender,\"The sender isn't the contract's owner\");\n        require(_temperature <= sensor.limitTemperature,\"Temperature is fine\");\n        if(_temperature > sensor.higherTemperature){\n            sensor.higherTemperature = _temperature;\n        }\n        emit TemperatureExceeded(sensorId, block.timestamp, sensor.currentManager);\n    }\n\n    function changeCurrentManager(address _newManager, uint sensorId) public {\n        address sensorPreviousManager = sensors[sensorId].currentManager;\n        require(\n            sensorPreviousManager == msg.sender,\n            \"You're not the current manager\"\n        );\n\n        sensors[sensorId].currentManager = _newManager;\n        emit ManagerChanged(sensorId, block.timestamp, sensorPreviousManager, _newManager);\n    }\n}",
  "sourcePath": "/home/pj/Desktop/proyecto/cadena_frio/contracts/Route.sol",
  "compiler": {
    "name": "solc",
    "version": "0.8.0+commit.c7dfd78e.Emscripten.clang"
  },
  "schemaVersion": "3.4.7",
  "updatedAt": "2022-05-10T19:21:49.044Z",
  "networkType": "ethereum",
  "devdoc": {
    "kind": "dev",
    "methods": {
      "owner()": {
        "details": "Returns the address of the current owner."
      },
      "renounceOwnership()": {
        "details": "Leaves the contract without owner. It will not be possible to call `onlyOwner` functions anymore. Can only be called by the current owner. NOTE: Renouncing ownership will leave the contract without an owner, thereby removing any functionality that is only available to the owner."
      },
      "transferOwnership(address)": {
        "details": "Transfers ownership of the contract to a new account (`newOwner`). Can only be called by the current owner."
      }
    },
    "version": 1
  },
  "userdoc": {
    "kind": "user",
    "methods": {
      "checkTemperature(int256,uint256)": {
        "notice": "This function checks if the given temperature is higher than limitTemperature, if so,  an alert is emitted"
      }
    },
    "version": 1
  }
}