{
  "contractName": "SensorFactory",
  "abi": [
    {
      "anonymous": false,
      "inputs": [
        {
          "indexed": false,
          "internalType": "uint256",
          "name": "sensorId",
          "type": "uint256"
        }
      ],
      "name": "NewSensor",
      "type": "event"
    },
    {
      "anonymous": false,
      "inputs": [
        {
          "indexed": true,
          "internalType": "address",
          "name": "previousOwner",
          "type": "address"
        },
        {
          "indexed": true,
          "internalType": "address",
          "name": "newOwner",
          "type": "address"
        }
      ],
      "name": "OwnershipTransferred",
      "type": "event"
    },
    {
      "inputs": [],
      "name": "owner",
      "outputs": [
        {
          "internalType": "address",
          "name": "",
          "type": "address"
        }
      ],
      "stateMutability": "view",
      "type": "function",
      "constant": true
    },
    {
      "inputs": [],
      "name": "renounceOwnership",
      "outputs": [],
      "stateMutability": "nonpayable",
      "type": "function"
    },
    {
      "inputs": [
        {
          "internalType": "uint256",
          "name": "",
          "type": "uint256"
        }
      ],
      "name": "sensorToOwner",
      "outputs": [
        {
          "internalType": "address",
          "name": "",
          "type": "address"
        }
      ],
      "stateMutability": "view",
      "type": "function",
      "constant": true
    },
    {
      "inputs": [
        {
          "internalType": "uint256",
          "name": "",
          "type": "uint256"
        }
      ],
      "name": "sensors",
      "outputs": [
        {
          "internalType": "int256",
          "name": "limitTemperature",
          "type": "int256"
        },
        {
          "internalType": "int256",
          "name": "higherTemperature",
          "type": "int256"
        },
        {
          "internalType": "address",
          "name": "sensorAddress",
          "type": "address"
        },
        {
          "internalType": "address",
          "name": "currentManager",
          "type": "address"
        }
      ],
      "stateMutability": "view",
      "type": "function",
      "constant": true
    },
    {
      "inputs": [
        {
          "internalType": "address",
          "name": "newOwner",
          "type": "address"
        }
      ],
      "name": "transferOwnership",
      "outputs": [],
      "stateMutability": "nonpayable",
      "type": "function"
    }
  ],
  "bytecode": "0x608060405234801561001057600080fd5b5061002d61002261003260201b60201c565b61003a60201b60201c565b6100fe565b600033905090565b60008060009054906101000a900473ffffffffffffffffffffffffffffffffffffffff169050816000806101000a81548173ffffffffffffffffffffffffffffffffffffffff021916908373ffffffffffffffffffffffffffffffffffffffff1602179055508173ffffffffffffffffffffffffffffffffffffffff168173ffffffffffffffffffffffffffffffffffffffff167f8be0079c531659141344cd1fd0a4f28419497f9722a3daafe3b4186f6b6457e060405160405180910390a35050565b6106c68061010d6000396000f3fe608060405234801561001057600080fd5b50600436106100575760003560e01c8063412f2e821461005c578063715018a61461008f5780638da5cb5b14610099578063db21ee06146100b7578063f2fde38b146100e7575b600080fd5b6100766004803603810190610071919061047e565b610103565b6040516100869493929190610586565b60405180910390f35b610097610183565b005b6100a161020b565b6040516100ae919061056b565b60405180910390f35b6100d160048036038101906100cc919061047e565b610234565b6040516100de919061056b565b60405180910390f35b61010160048036038101906100fc9190610455565b610267565b005b6001818154811061011357600080fd5b90600052602060002090600402016000915090508060000154908060010154908060020160009054906101000a900473ffffffffffffffffffffffffffffffffffffffff16908060030160009054906101000a900473ffffffffffffffffffffffffffffffffffffffff16905084565b61018b61035f565b73ffffffffffffffffffffffffffffffffffffffff166101a961020b565b73ffffffffffffffffffffffffffffffffffffffff16146101ff576040517f08c379a00000000000000000000000000000000000000000000000000000000081526004016101f6906105eb565b60405180910390fd5b6102096000610367565b565b60008060009054906101000a900473ffffffffffffffffffffffffffffffffffffffff16905090565b60026020528060005260406000206000915054906101000a900473ffffffffffffffffffffffffffffffffffffffff1681565b61026f61035f565b73ffffffffffffffffffffffffffffffffffffffff1661028d61020b565b73ffffffffffffffffffffffffffffffffffffffff16146102e3576040517f08c379a00000000000000000000000000000000000000000000000000000000081526004016102da906105eb565b60405180910390fd5b600073ffffffffffffffffffffffffffffffffffffffff168173ffffffffffffffffffffffffffffffffffffffff161415610353576040517f08c379a000000000000000000000000000000000000000000000000000000000815260040161034a906105cb565b60405180910390fd5b61035c81610367565b50565b600033905090565b60008060009054906101000a900473ffffffffffffffffffffffffffffffffffffffff169050816000806101000a81548173ffffffffffffffffffffffffffffffffffffffff021916908373ffffffffffffffffffffffffffffffffffffffff1602179055508173ffffffffffffffffffffffffffffffffffffffff168173ffffffffffffffffffffffffffffffffffffffff167f8be0079c531659141344cd1fd0a4f28419497f9722a3daafe3b4186f6b6457e060405160405180910390a35050565b60008135905061043a81610662565b92915050565b60008135905061044f81610679565b92915050565b60006020828403121561046757600080fd5b60006104758482850161042b565b91505092915050565b60006020828403121561049057600080fd5b600061049e84828501610440565b91505092915050565b6104b08161061c565b82525050565b6104bf8161062e565b82525050565b60006104d260268361060b565b91507f4f776e61626c653a206e6577206f776e657220697320746865207a65726f206160008301527f64647265737300000000000000000000000000000000000000000000000000006020830152604082019050919050565b600061053860208361060b565b91507f4f776e61626c653a2063616c6c6572206973206e6f7420746865206f776e65726000830152602082019050919050565b600060208201905061058060008301846104a7565b92915050565b600060808201905061059b60008301876104b6565b6105a860208301866104b6565b6105b560408301856104a7565b6105c260608301846104a7565b95945050505050565b600060208201905081810360008301526105e4816104c5565b9050919050565b600060208201905081810360008301526106048161052b565b9050919050565b600082825260208201905092915050565b600061062782610638565b9050919050565b6000819050919050565b600073ffffffffffffffffffffffffffffffffffffffff82169050919050565b6000819050919050565b61066b8161061c565b811461067657600080fd5b50565b61068281610658565b811461068d57600080fd5b5056fea26469706673582212209b6a4181ad14ee5590015f9e602dcb1894311ef18f34eab16b5c91d16b34af8d64736f6c63430008000033",
  "immutableReferences": {},
  "source": "// SPDX-License-Identifier: GPL-3.0\n\npragma solidity >=0.7.0 <0.9.0;\n\nimport \"@openzeppelin/contracts/access/Ownable.sol\";\nimport \"./Route.sol\";\n\ncontract SensorFactory is Ownable {\n\n    struct Sensor {\n        int limitTemperature;\n        int higherTemperature;\n        address sensorAddress;\n        address currentManager;\n    }\n\n    struct AlertRecord { \n        int timestamp;\n        int registeredTemperature;\n        int owner;\n    }\n\n    Sensor[] public sensors;\n    mapping (uint=>address) public sensorToOwner;\n    event NewSensor(uint sensorId);\n\n    function _createSensor(int _limitTemperature, int _higherTemperature, address _currentManager) internal returns(uint){\n        \n        sensors.push(Sensor(_limitTemperature, _higherTemperature, msg.sender, _currentManager));\n        uint id = sensors.length-1;\n        emit NewSensor(id);\n        return id;\n    }\n}\n",
  "sourcePath": "/home/pj/Desktop/proyecto/cadena_frio/contracts/SensorFactory.sol",
  "compiler": {
    "name": "solc",
    "version": "0.8.0+commit.c7dfd78e.Emscripten.clang"
  },
  "schemaVersion": "3.4.7",
  "updatedAt": "2022-05-10T19:21:49.049Z",
  "networkType": "ethereum",
  "devdoc": {
    "kind": "dev",
    "methods": {
      "owner()": {
        "details": "Returns the address of the current owner."
      },
      "renounceOwnership()": {
        "details": "Leaves the contract without owner. It will not be possible to call `onlyOwner` functions anymore. Can only be called by the current owner. NOTE: Renouncing ownership will leave the contract without an owner, thereby removing any functionality that is only available to the owner."
      },
      "transferOwnership(address)": {
        "details": "Transfers ownership of the contract to a new account (`newOwner`). Can only be called by the current owner."
      }
    },
    "version": 1
  },
  "userdoc": {
    "kind": "user",
    "methods": {},
    "version": 1
  }
}